S01200006B65797061642D4C43442E7372656394
S11300000C942A000C9447000C9447000C9447006D
S11300100C9447000C9447000C9447000C94470040
S11300200C9447000C9447000C9447000C94470030
S11300300C9447000C9447000C9447000C94470020
S11300400C9447000C9447000C9447000C94470010
S11300500C94470011241FBECFE5D8E0DEBFCDBF0E
S113006011E0A0E6B0E0E8E6FDE002C005900D92E4
S1130070A839B107D9F721E0A8E9B1E001C01D9280
S1130080AC39B207E1F70E9449000C94B2060C9413
S11300900000CF93DF93CDB7DEB72E970FB6F89459
S11300A0DEBF0FBECDBF88E0E0E6F0E0DE011196D2
S11300B001900D928A95E1F70E947B030E9442040D
S11300C00E94B7020E9496020E94280441E060E068
S11300D080E00E94D30441E063E081E00E94D30405
S11300E041E060E082E00E94D30441E061E082E00C
S11300F00E94D30441E062E082E00E94D30486E7D8
S113010090E00E94C7058F3F99F482B341E061E01B
S11301100E94620482B340E060E00E94620446E709
S113012050E0BE016F5F7F4FCE0109960E94CA0561
S113013010E000E0C12CD12C49C01F5FCE01019614
S11301400E942506082F8F3FC9F40E941E0488E6EA
S113015090E00E94E60361E082E00E94FC0389E7EC
S113016090E00E94E60381E090E0909399018093EF
S113017098016894CC24C1F8D12C2DC00E941E048F
S113018088E890E00E94E60361E082E00E94FC03BC
S113019087E990E00E94E60361E082E00E94FC03AC
S11301A086EA90E00E94E60383E3811B0E94C90370
S11301B0133019F4CC24C394D12C2FEF87EA91E6A1
S11301C0215080409040E1F700C00000011103C0BD
S11301D0133008F4B2CF60E080E00E94FC030E9478
S11301E01E04E12CF12C0FE210E0412C512C812C47
S11301F0912CA12CB12C612C712C21E0C216D104BC
S113020029F441E060E080E00E9462040E94F4026C
S1130210382E0E94550490939B0180939A010817ED
S1130220190720F48033910540F411C08017910719
S113023070F48F32910530F00AC08C01EE24E394FF
S1130240F12C05C08C016894EE24E1F8F12C8EE4C5
S1130250381609F41AC18091980190919901019777
S113026009F013C141E063E081E00E9462049FE26F
S1130270391203C02FEF621A720A81E06816710402
S1130280F1F460E080E00E94FC0383EB90E00E94C4
S1130290E60341E060E082E00E9462049FEF29E609
S11302A088E1915020408040E1F700C0000060E008
S11302B080E00E94FC0380E291E00E94E60392E069
S11302C06916710421F560E080E00E94FC0340E0BF
S11302D060E082E00E94620460E080E00E94FC032F
S11302E083EC90E00E94E6032FEF89E698E1215029
S11302F080409040E1F700C0000060E080E00E9490
S1130300FC0380E291E00E94E603612C712C29E257
S1130310321203C08FEFA81AB80A91E0A916B104EB
S1130320F1F460E080E00E94FC0384ED90E00E9420
S1130330E60341E061E082E00E9462042FEF89E677
S113034098E1215080409040E1F700C0000060E057
S113035080E00E94FC0380E291E00E94E60322E038
S1130360A216B10421F560E080E00E94FC0340E0A5
S113037061E082E00E94620460E080E00E94FC038D
S113038086EE90E00E94E6038FEF99E628E1815023
S113039090402040E1F700C0000060E080E00E944F
S11303A0FC0380E291E00E94E603A12CB12C8DE2D3
S11303B0381203C09FEF891A990A21E0821691042A
S11303C0F1F460E080E00E94FC0389EF90E00E9479
S11303D0E60341E062E082E00E9462048FEF99E666
S11303E028E1815090402040E1F700C0000060E027
S11303F080E00E94FC038DE191E00E94E60382E02C
S11304008816910421F560E080E00E94FC0340E03E
S113041062E082E00E94620460E080E00E94FC03EB
S11304208AE091E00E94E6039FEF29E688E191507B
S113043020408040E1F700C0000060E080E00E94BE
S1130440FC038CE191E00E94E603812C912C9BE259
S1130450391203C02FEF421A520A81E048165104A0
S1130460A1F460E080E00E94FC0383E391E00E9439
S1130470E6030E942E0460E080E00E94FC038EE10B
S113048091E00E94E603412C512C809198019091B7
S11304909901019709F591E0E916F104E9F460E0A6
S11304A080E00E94FC0382E491E00E94E6030E9443
S11304B0A1022FEF89E698E1215080409040E1F7B6
S11304C000C0000060E080E00E94FC0384E291E050
S11304D00E94E603E12CF12C8091980190919901FE
S11304E0019709F08ACE22E0E216F10409F085CEE4
S11304F060E080E00E94FC038CE491E00E94E6034B
S11305000E94AC028FEF99E628E181509040204090
S1130510E1F700C0000060E080E00E94FC0384E298
S113052091E00E94E603E12CF12C67CE41E065E006
S113053081E00E94D30441E066E081E00E94D3049C
S1130540089540E065E081E00E94D30441E066E064
S113055081E00E94D304089540E065E081E00E94B8
S1130560D30440E066E081E00E94D304089541E0B2
S113057064E082E00E94D30441E065E082E00E94EE
S1130580D30441E066E082E00E94D30441E067E0E6
S113059082E00E94D30440E063E083E00E94D3043D
S11305A040E064E083E00E94D30440E065E083E03F
S11305B00E94D30440E066E083E00E94D30441E05B
S11305C063E083E00E94620441E064E083E00E940F
S11305D0620441E065E083E00E94620441E066E079
S11305E083E00E9462040895FF920F931F93CF93B8
S11305F0DF9341E064E082E00E94620441E065E050
S113060082E00E94620441E066E082E00E946204AB
S113061041E067E082E00E9462040F2EFEE4FF2EB8
S1130620F02D10E02BC004E0010F40E0602F82E0C9
S11306300E946204D0E01AC0C3E0CD0F6C2F83E0A7
S11306400E944405811111C0E12FF0E0EE0FFF1F5D
S1130650EE0FFF1FE95AFE4FED0FF11DF0806C2FD6
S113066083E00E9444058823D1F3DF5FD43020F374
S113067041E0602F82E00E9462041F5F143098F210
S11306808F2DDF91CF911F910F91FF90089541E03D
S113069062E081E00E9462048FE99FE00197F1F734
S11306A000C0000040E062E081E00E9462048FE943
S11306B09FE00197F1F700C000000895CF93C82F81
S11306C040E060E081E00E94620440E061E081E09B
S11306D00E9462046C2F607F80E00E949D050E944E
S11306E047036C2F6295607F80E00E949D050E9405
S11306F04703CF91089541E062E081E00E94D30472
S113070041E060E081E00E94D30441E061E081E0E7
S11307100E94D30441E067E080E00E94D30441E0FA
S113072066E080E00E94D30441E065E080E00E943E
S1130730D30441E064E080E00E94D3042FEF80E71B
S113074092E0215080409040E1F700C0000082E038
S11307500E945E0388E20E945E038FE99FE0019796
S1130760F1F700C000008FE00E945E038FE99FE074
S11307700197F1F700C0000081E00E945E038FE35F
S11307809FE10197F1F700C0000086E00E945E033C
S11307900895CF93C82F41E060E081E00E94620495
S11307A040E061E081E00E9462046C2F607F80E0A1
S11307B00E949D050E9447036C2F6295607F80E034
S11307C00E949D050E944703CF910895CF93DF9324
S11307D0EC010CC00E94C9032FEF80E792E0215086
S11307E080409040E1F700C000002196888181118B
S11307F0F1CFDF91CF9108959FEF980F9430B0F42B
S11308006623B1F06531B0F4813019F48FE7860FB7
S113081012C0823019F48FEB860F0DC0833019F4A7
S11308208FE8860F08C08FEC860F05C080E803C0F0
S113083080E801C080E80E945E03089581E00E9480
S11308405E038FE39FE10197F1F700C00000089574
S113085041E063E082E00E94D304089541E063E054
S113086082E00E9462042FEF83ED90E321508040E8
S11308709040E1F700C0000040E063E082E00E94A5
S1130880620408958AB38D7F8ABB86B1887F86B956
S113089086B1876086B987B1806487B986B188607C
S11308A086B986B1806886B9089587B1816087B9B1
S11308B086B1806486B924B185B190E0982F8827E9
S11308C0822B0895442319F04130C9F108958130F1
S11308D091F028F08230D9F0833029F108952BB3B8
S11308E081E090E002C0880F991F6A95E2F7809535
S11308F082238BBB089528B381E090E002C0880F67
S1130900991F6A95E2F78095822388BB089525B3E1
S113091081E090E002C0880F991F6A95E2F7809504
S1130920822385BB089522B381E090E002C0880F42
S1130930991F6A95E2F78095822382BB08958130DE
S113094089F028F08230C9F0833011F108952BB377
S113095081E090E002C0880F991F6A95E2F7822B2C
S11309608BBB089528B381E090E002C0880F991FE3
S11309706A95E2F7822B88BB089525B381E090E065
S113098002C0880F991F6A95E2F7822B85BB0895F0
S113099022B381E090E002C0880F991F6A95E2F7C4
S11309A0822B82BB0895442319F04130C9F1089584
S11309B0813091F028F08230D9F0833029F1089504
S11309C02AB381E090E002C0880F991F6A95E2F78C
S11309D0809582238ABB089527B381E090E002C00A
S11309E0880F991F6A95E2F78095822387BB089543
S11309F024B381E090E002C0880F991F6A95E2F762
S1130A008095822384BB089521B381E090E002C0E5
S1130A10880F991F6A95E2F78095822381BB089518
S1130A20813089F028F08230C9F0833011F10895C3
S1130A302AB381E090E002C0880F991F6A95E2F71B
S1130A40822B8ABB089527B381E090E002C0880F0F
S1130A50991F6A95E2F7822B87BB089524B381E03E
S1130A6090E002C0880F991F6A95E2F7822B84BB3D
S1130A70089521B381E090E002C0880F991F6A9520
S1130A80E2F7822B81BB08958130D1F028F08230C7
S1130A9059F18330E9F150C049B381E090E09C0101
S1130AA0062E02C0220F331F0A94E2F7842F90E02F
S1130AB08223932302C0959587956A95E2F708955A
S1130AC046B381E090E09C01062E02C0220F331F42
S1130AD00A94E2F7842F90E08223932302C0959531
S1130AE087956A95E2F7089543B381E090E09C010D
S1130AF0062E02C0220F331F0A94E2F7842F90E0DF
S1130B008223932302C0959587956A95E2F7089509
S1130B1040B381E090E09C01062E02C0220F331FF7
S1130B200A94E2F7842F90E08223932302C09595E0
S1130B3087956A95E2F708950895813041F028F089
S1130B40823039F0833039F008956BBB089568BB67
S1130B50089565BB089562BB0895E199FECF07B679
S1130B6000FCFDCF8EBB9FBB6DBB8CB384608CBB84
S1130B708CB382608CBBE199FECF0895E199FECFDE
S1130B808EBB9FBB8CB381608CBB8DB308950E94D8
S1130B90BE050895DF92EF92FF920F931F93CF93B8
S1130BA0DF938B017A010E941E0487E691E00E9484
S1130BB0E60361E082E00E94FC03D0E027C00E94CB
S1130BC0F402C82F8E34D9F30E94C9032FEF89E6AB
S1130BD098E1215080409040E1F700C00000DD24FE
S1130BE0D394DD0E6D2D82E00E94FC038AE20E9404
S1130BF0C903ED2FF0E0EE0FFF1FE00FF11F60EDD2
S1130C006C0F808191810E94AD05DD2DD630B8F244
S1130C1060E0C7010E94AD0561E083E00E94FC032F
S1130C2088E791E00E94E6032FEF87EA91E62150DE
S1130C3080409040E1F700C00000DF91CF911F9108
S1130C400F91FF90EF90DF900895BF92CF92DF92C3
S1130C50EF92FF920F931F93CF93DF93CDB7DEB73D
S1130C602C970FB6F894DEBF0FBECDBF6C0186E0A3
S1130C70FE013196DF01282F1D922A95E9F7369659
S1130C80DF011D928A95E9F70E941E0487E891E02E
S1130C900E94E60361E082E00E94FC0300E035C0AC
S1130CA00E94F402182F8E34D9F30E94C903BFEFB7
S1130CB029E688E1B15020408040E1F700C00000FF
S1130CC0BB24B394B00E6B2D82E00E94FC038AE235
S1130CD00E94C903E02EF12CF701EE0FFF1FEC0D6B
S1130CE0FD1D808191810E94BE05E1E0F0E0EC0FE2
S1130CF0FD1FEE0DFF1D8083E7E0F0E0EC0FFD1F0C
S1130D00EE0DFF1D105310830B2D063048F220E02A
S1130D108FEF16C0822F90E0E1E0F0E0EC0FFD1FB2
S1130D20E80FF91F3081E7E0F0E0EC0FFD1FE80F5A
S1130D30F91F8081381711F080E001C08FEF2F5F19
S1130D40263040F32C960FB6F894DEBF0FBECDBF0D
S1130D50DF91CF911F910F91FF90EF90DF90CF9093
S10B0D60BF900895F894FFCF41
S1130D687A007B007C007D00436F72726563742097
S1130D7870617373776F7264005361666520697379
S1130D88206F70656E656400496E636F7272656387
S1130D9874207061737300536166652069732063FE
S1130DA86C6F736564005472696573206C6566744E
S1130DB83A2000626C7565206C6564206973206F45
S1130DC86E2000626C7565206C6564206973206F01
S1130DD86666200079656C6C6F77206C65642069A1
S1130DE873206F6E200079656C6C6F77206C656476
S1130DF8206973206F66662000677265656E206CD3
S1130E086564206973206F6E2000677265656E20C3
S1130E186C6564206973206F66662000202020209A
S1130E2820202020202020202020202020202020B6
S1130E38202000446F6F7220697320556E6C6F63B5
S1130E486B00414443206973206F6E004144432082
S1130E586973206F6666003738392F34353629317F
S1130E6832332D2A303D2B53657420382D6220707F
S1130E78617373776F72640050617373776F726410
S1130E8820736176656400456E74657220706173C1
S10B0E9873776F72643A0000E5
S9030000FC
